:020000020000FC
:040000000C9400005C
:103C0000F894A89504B7007004BF11E20091600019
:103C10000861009360001093600004E00EBF0FEF96
:103C20000DBF2098289A1899A8950C940000389AEE
:103C3000409A0CE00093C40000E0007F0093C500B0
:103C400000270093C00008E10093C10006E0009344
:103C5000C200A895A8950E94051F093461F0073598
:103C600061F0023561F0073761F0023761F001352C
:103C700061F00C942A1E0C94531E0C949E1E0C94FE
:103C80007F1E0C94DC1E0C94C91E02E40E94F71ED9
:103C9000A8950091C00006FFFBCF4098389828985F
:103CA000A8950C94000006E40E94F71E02E40E940E
:103CB000F71E0CE40E94F71E01E00E94F71E00E0D0
:103CC0000E94F71E00E00E94F71E00E00E94F71E0F
:103CD00000E00E94F71E00E00E94F71E03E00E9431
:103CE000F71E00E00E94F71E00E00E94F71E00E0B1
:103CF0000E94F71E01E00E94F71E0C94391E0E94DC
:103D0000051F402F60E80E94131F0E94F71E01301C
:103D100099F000271127FF27E42F8894FF0FEE0F5B
:103D2000F01F13951730C8F31127A89505910E942D
:103D3000F71E13951038C8F30C94391E0E94051F06
:103D4000402F68E70E94131F0E94F71E0130E9F020
:103D50000E942D1F1127A8950E94051F002E0E946A
:103D6000051F102E01E00E94201F3296139510347B
:103D700090F30E942D1F03E00E94201F05E00E9487
:103D8000201F01E10E94201F00E00E94F71E0C94FA
:103D9000391EA895F999FDCFAA27BB2791E08FEF8F
:103DA000A895B2BDA1BDF89A00B50E94F71E119664
:103DB0000197B0F70C94391EAA27BB2791E08FEF2B
:103DC000A8950E94051FA895F999FDCFB2BDA1BD88
:103DD00000BDFA9AF99A1196019728F406E60E9416
:103DE000F71E0C94391E0EE60E94F71EE9CF1F93B2
:103DF0001FB71F93A8951091C00015FFFBCF00932C
:103E0000C6001F911FBF1F9108951F931FB71F93D7
:103E1000A8951091C00017FFFBCF0091C6001F911D
:103E20001FBF1F9108951F931FB71F93461710F0D0
:103E300001E002C000E000C01F911FBF1F91089564
:103E40001F931FB71F93A89517B710FDFCCF07BF8F
:103E5000E8951F911FBF1F9108950F930FB70F9300
:103E6000E42FE170E0FBEE27E7F9F42FFE77F695FB
:083E70000F910FBF0F9108959F
:00000001FF
