:020000020000FC
:040000000C9400005C
:103C0000F894A89501B5086101BD077F01BD04E0E6
:103C10000EBF0FE50DBFB898C09AB0990C94000084
:103C2000BC9AC49A00E109B900E000BD00270BB9B5
:103C300008E10AB90E94E91E093461F0073561F014
:103C4000023561F0073761F0023761F0013561F04C
:103C50000C941A1E0C94441E0C948E1E0C94701E10
:103C60000C94C61E0C94B51E01E10E94001F07B7FC
:103C700006FDFDCF02E40E94DF1E5E9BFECFC498CE
:103C8000BC98C0980C94000006E40E94DF1E02E479
:103C90000E94DF1E0CE40E94DF1E01E00E94DF1E76
:103CA00000E00E94DF1E00E00E94DF1E00E00E9494
:103CB000DF1E00E00E94DF1E00E00E94DF1E02E027
:103CC0000E94DF1E00E00E94DF1E00E00E94DF1E57
:103CD00000E00E94DF1E01E00E94DF1E0C94281EFF
:103CE0000E94E91E402F60E80E94F31E0E94DF1E22
:103CF000013091F000271127FF27E42F8894FF0F50
:103D0000EE0FF01F13951730C8F3112705910E948D
:103D1000DF1E13951038D0F30C94281E0E94E91E64
:103D2000402F68E70E94F31E0E94DF1E0130C9F099
:103D30000E940E1F11270E94E91E002E0E94E91EFC
:103D4000102E01E00E94001F32961395103498F354
:103D50000E940E1F03E00E94001F05E00E94001F4A
:103D600000E00E94DF1E0C94281EE199FECFAA27D6
:103D7000BB2791E08FEFBFBBAEBBE09A0DB30E94B3
:103D8000DF1E11960197B8F70C94281EAA27BB27AF
:103D900091E08FEF0E94E91EE199FECFBFBBAEBB61
:103DA0000DBBE29AE19A1196019728F406E60E946B
:103DB000DF1E0C94281E0EE60E94DF1EEBCF1F9321
:103DC0001FB71F935D9BFECF0CB91F911FBF1F91A3
:103DD00008951F931FB71F935F9BFECF0CB11F91D8
:103DE0001FBF1F9108951F931FB71F93461710F011
:103DF00001E002C000E000C01F911FBF1F910895A5
:103E00001F931FB71F9317B710FDFDCF07BFE8958E
:103E1000FFFF00001F911FBF1F9108950F930FB761
:103E20000F93E42FE170E0FBEE27E7F9F42FFE7724
:0A3E3000F6950F910FBF0F91089552
:00000001FF
