:020000020000FC
:040000000C9400005C
:103C0000F894A89501B5086101BD077F01BD04E0E6
:103C10000EBF0FE50DBFB898C09AB0990C94000084
:103C2000BC9AC49A00E109B900E000BD00270BB9B5
:103C300008E10AB906E800BD0E94E81E093461F0F7
:103C4000073561F0023561F0073761F0023761F046
:103C5000013561F00C941C1E0C94401E0C948A1EBD
:103C60000C946C1E0C94C51E0C94B41E02E40E94AD
:103C7000DE1E5E9BFECFC498BC98C0980C940000DA
:103C800006E40E94DE1E02E40E94DE1E0CE40E9496
:103C9000DE1E01E00E94DE1E00E00E94DE1E00E04B
:103CA0000E94DE1E00E00E94DE1E00E00E94DE1E7A
:103CB00000E00E94DE1E01E00E94DE1E00E00E9485
:103CC000DE1E00E00E94DE1E00E00E94DE1E01E01B
:103CD0000E94DE1E0C942A1E0E94E81E402F60E8FF
:103CE0000E94F21E0E94DE1E013091F00027112773
:103CF000FF27E42F8894FF0FEE0FF01F1395173066
:103D0000C8F3112705910E94DE1E13951038D0F3D9
:103D10000C942A1E0E94E81E402F68E70E94F21EA3
:103D20000E94DE1E0130E1F00E940B1F11270E944D
:103D3000E81E002E0E94E81E102E01E00E94FF1EC9
:103D400032961395103498F30E940B1F03E00E94E3
:103D5000FF1E05E00E94FF1E01E10E94FF1E00E021
:103D60000E94DE1E0C942A1EE199FECFAA27BB27D3
:103D700091E08FEFBFBBAEBBE09A0DB30E94DE1E99
:103D800011960197B8F70C942A1EAA27BB2791E039
:103D90008FEF0E94E81EE199FECFBFBBAEBB0DBB0B
:103DA000E29AE19A1196019728F406E60E94DE1E37
:103DB0000C942A1E0EE60E94DE1EEBCF1F931FB747
:103DC0001F935D9BFECF0CB91F911FBF1F910895DC
:103DD0001F931FB71F935F9BFECF0CB11F911FBF97
:103DE0001F9108951F931FB71F93461710F001E00E
:103DF00002C000E000C01F911FBF1F9108951F93D4
:103E00001FB71F9317B710FDFDCF07BFE8951F9190
:103E10001FBF1F9108950F930FB70F93E42FE17009
:103E2000E0FBEE27E7F9F42FFE77F6950F910FBF31
:043E30000F91089551
:00000001FF
