:020000020000FC
:02000000FFCF30
:103C0000F894A89504E00EBF0FE50DBF0E94921E28
:103C10000E949E1E0E94C01E002311F00C94000002
:103C20000E94AB1E0E94BE1E0E94CD1E093439F0B8
:103C3000013541F0023541F0023749F0F5CF0E94DD
:103C40002B1EF2CF0C94421E0E94491EEDCF0E9403
:103C5000701EEACFFFCF0F931F93EF93FF930FB721
:103C60000F93E6E1FDE3112705910E94D91E1395FC
:103C70001E3009F0F9CF0F910FBFFF91EF911F9107
:103C80000F91089502E40E94D91E0E94D91E0C943F
:103C900000000F931F930FB70F930E94CD1E102F9C
:103CA000003820F001E00E94D91E15C000E00E94FB
:103CB000D91EFF27E12F002711278894FF0FEE0F51
:103CC000F11F03950730C8F3112705910E94D91EF3
:103CD00013951038D0F30F910FBF1F910F910895D6
:103CE0000F931F932F93AF93BF930FB70F93AA27F1
:103CF000BB2710E022E00E94E51E0E94D91E11960B
:103D0000A117B207C1F70F910FBFBF91AF912F91CC
:103D10001F910F91089546424C01000000000001E0
:103D2000000000010F930FB70F9301B5086101BDAB
:103D3000077F01BD0F910FBF0F9108950F930FB72C
:103D40000F9300270ABB07BB04BB01BBC09A0F91AE
:103D50000FBF0F9108950F930FB70F93BC9AC4989C
:103D600000E109B900E000BD00270BB908E10AB97C
:103D700006E800BD0F910FBF0F910895C49A0895F2
:103D80001F931FB71F9306B3017029F00FEF1F9108
:103D90001FBF1F9108950027FACF1F931FB71F93CE
:103DA000A8950BB107FFFCCF0CB11F911FBF1F914E
:103DB00008951F931FB71F93A8951BB115FFFCCF44
:103DC0000CB91F911FBF1F9108953F933FB73F93B9
:103DD000A895E199FDCFBFBBAEBBE09A0DB33F9173
:063DE0003FBF3F91089572
:00000001FF
