:020000020000FC
:02000000FFCF30
:103C0000F894A89504E00EBF0FE50DBF0E941A1EA0
:103C10000E94261E0E94481E002311F00C940000F2
:103C20000E94331E0E94461E0E94551E0E94601E66
:103C3000FBCFFFCF0F930FB70F9301B5086101BD05
:103C4000077F01BD0F910FBF0F9108950F930FB71D
:103C50000F9300270ABB07BB04BB01BBC09A0F919F
:103C60000FBF0F9108950F930FB70F93BC9AC4988D
:103C700000E109B900E000BD00270BB908E10AB96D
:103C800006E800BD0F910FBF0F910895C49A0895E3
:103C90001F931FB71F9306B3017029F00FEF1F91F9
:103CA0001FBF1F9108950027FACF1F931FB71F93BF
:103CB0000BB107FFFDCF0CB11F911FBF1F910895DE
:103CC0001F931FB71F931BB115FFFDCF0CB91F9199
:063CD0001FBF1F910895C3
:00000001FF
