:020000020000FC
:02000000FFCF30
:103C0000F894A89504E00EBF0FE50DBF0E94721E48
:103C10000E947E1E0E94A01E002311F00C94000042
:103C20000E948B1E0E949E1E0E94AD1E093429F028
:103C3000013531F0023531F0F7CF0E94261EF4CF66
:103C40000C943D1E0E94441EEFCFFFCF0F931F9395
:103C5000EF93FF930FB70F93E6EDFCE31127059168
:103C60000E94B91E13951E3009F0F9CF0F910FBFB6
:103C7000FF91EF911F910F91089502E40E94B91EE8
:103C80000E94B91E0C9400000F931F930FB70F935F
:103C90000E94AD1E102F003820F001E00E94B91ED6
:103CA00015C000E00E94B91EFF27E12F0027112751
:103CB0008894FF0FEE0FF11F03950730C8F311270B
:103CC00005910E94B91E13951038D0F30F910FBFC4
:103CD0001F910F91089546424C0100000000000121
:103CE000000000010F930FB70F9301B5086101BDEC
:103CF000077F01BD0F910FBF0F9108950F930FB76D
:103D00000F9300270ABB07BB04BB01BBC09A0F91EE
:103D10000FBF0F9108950F930FB70F93BC9AC498DC
:103D200000E109B900E000BD00270BB908E10AB9BC
:103D300006E800BD0F910FBF0F910895C49A089532
:103D40001F931FB71F9306B3017029F00FEF1F9148
:103D50001FBF1F9108950027FACF1F931FB71F930E
:103D6000A8950BB107FFFCCF0CB11F911FBF1F918E
:103D700008951F931FB71F93A8951BB115FFFCCF84
:0A3D80000CB91F911FBF1F91089599
:00000001FF
