:020000020000FC
:02000000FFCF30
:103C0000F894A89504E00EBF0FE50DBF0E94B71E03
:103C10000E94C31E0E94E51E002311F00C940000B8
:103C20000E94D01E0E94E31E0E94F21E093449F039
:103C3000013551F0023551F0023759F0073761F084
:103C4000F3CF0E94301EF0CF0C94471E0E944E1EF0
:103C5000EBCF0E94751EE8CF0E94181FE5CFFFCF63
:103C60000F931F93EF93FF930FB70F93E0E6FDE3DE
:103C7000112705910E94FE1E13951E3009F0F9CF01
:103C80000F910FBFFF91EF911F910F91089502E4E3
:103C90000E94FE1E0E94FE1E0C9400000F931F93B4
:103CA0000FB70F930E94F21E102F003820F001E092
:103CB0000E94FE1E15C000E00E94FE1EFF27E12F9D
:103CC000002711278894FF0FEE0FF11F039507308F
:103CD000C8F3112705910E94FE1E13951038D0F3EA
:103CE0000F910FBF1F910F9108950F931F932F9363
:103CF000AF93BF930FB70F93AA27BB2710E022E023
:103D00000E940A1F0E94FE1E1196A117B207C1F75A
:103D10000F910FBFBF91AF912F911F910F910895F8
:103D20000F931F932F93AF93BF930FB70F93AA27B0
:103D3000BB2710E022E00E94F21E1196A117B207E5
:103D400021F00EE60E94FE1EF6CF06E60E94FE1E41
:103D50000F910FBFBF91AF912F911F910F910895B8
:103D600046424C01000000000001000000010F93DA
:103D70000FB70F9301B5086101BD077F01BD0F911A
:103D80000FBF0F9108950F930FB70F9300270ABB32
:103D900007BB04BB01BBC09A0F910FBF0F910895E1
:103DA0000F930FB70F93BC9AC49800E109B900E0D4
:103DB00000BD00270BB908E10AB906E800BD0F9164
:103DC0000FBF0F910895C49A08951F931FB71F93B3
:103DD00006B3017029F00FEF1F911FBF1F910895C7
:103DE0000027FACF1F931FB71F93A8950BB107FFAA
:103DF000FCCF0CB11F911FBF1F9108951F931FB7D8
:103E00001F93A8951BB115FFFCCF0CB91F911FBFC5
:103E10001F9108951F931FB71F93A895E199FDCF98
:103E2000BFBBAEBBE09A0DB31F911FBF1F9108959A
:103E30001F931FB71F93A895E199FDCFBFBBAEBBE2
:0E3E40000DBBE29AE19A1F911FBF1F910895DA
:00000001FF
