:020000020000FC
:02000000FFCF30
:103C0000F894A89504E00EBF0FE50DBF0E943B1E7F
:103C10000E94471E0E94691E002311F00C940000B0
:103C20000E94541E0E94671E0E94761E093409F0ED
:103C3000FBCF0E941D1EF8CFFFCF0F931F93EF9372
:103C4000FF930FB70F93E8E6FCE3112705910E945D
:103C5000821E13951E3009F0F9CF0F910FBFFF910F
:103C6000EF911F910F91089546424C010000000012
:103C70000001000000010F930FB70F9301B5086119
:103C800001BD077F01BD0F910FBF0F9108950F93E5
:103C90000FB70F9300270ABB07BB04BB01BBC09A39
:103CA0000F910FBF0F9108950F930FB70F93BC9A09
:103CB000C49800E109B900E000BD00270BB908E194
:103CC0000AB906E800BD0F910FBF0F910895C49A7D
:103CD00008951F931FB71F9306B3017029F00FEFCC
:103CE0001F911FBF1F9108950027FACF1F931FB781
:103CF0001F93A8950BB107FFFCCF0CB11F911FBFFD
:103D00001F9108951F931FB71F93A8951BB115FF0F
:0C3D1000FCCF0CB91F911FBF1F9108953C
:00000001FF
