:020000020000FC
:02000000FFCF30
:103C0000F894A89504E00EBF0FE50DBF0E94461E74
:103C10000E94521E0E94741E002311F00C9400009A
:103C20000E945F1E0E94721E0E94811E093419F0BC
:103C3000013521F0F9CF0E94211EF6CF0C94381ED9
:103C4000FFCF0F931F93EF93FF930FB70F93EEE701
:103C5000FCE3112705910E948D1E13951E3009F07B
:103C6000F9CF0F910FBFFF91EF911F910F91089521
:103C700002E40E948D1E0E948D1E0C94000046429C
:103C80004C01000000000001000000010F930FB77D
:103C90000F9301B5086101BD077F01BD0F910FBFF3
:103CA0000F9108950F930FB70F9300270ABB07BB1F
:103CB00004BB01BBC09A0F910FBF0F9108950F93E2
:103CC0000FB70F93BC9AC49800E109B900E000BD9A
:103CD00000270BB908E10AB906E800BD0F910FBF34
:103CE0000F910895C49A08951F931FB71F9306B3A9
:103CF000017029F00FEF1F911FBF1F91089500273A
:103D0000FACF1F931FB71F93A8950BB107FFFCCFE6
:103D10000CB11F911FBF1F9108951F931FB71F93D1
:103D2000A8951BB115FFFCCF0CB91F911FBF1F91A8
:023D30000895F4
:00000001FF
