:020000020000FC
:02000000FFCF30
:103C0000F894A89504E00EBF0FE50DBF0E944E1E6C
:103C10000E945A1E0E947C1E002311F00C9400008A
:103C20000E94671E0E947A1E0E94891E093409F0B4
:103C3000FBCF0E941D1EF8CFFFCF0F930FB70F933E
:103C400006E40E94951E02E40E94951E0CE40E9468
:103C5000951E01E00E94951E00E00E94951E00E066
:103C60000E94951E00E00E94951E00E00E94951E95
:103C700000E00E94951E01E00E94951E00E00E9457
:103C8000951E00E00E94951E00E00E94951E01E036
:103C90000E94951E0F910FBF0F9108950F930FB7BC
:103CA0000F9301B5086101BD077F01BD0F910FBFE3
:103CB0000F9108950F930FB70F9300270ABB07BB0F
:103CC00004BB01BBC09A0F910FBF0F9108950F93D2
:103CD0000FB70F93BC9AC49800E109B900E000BD8A
:103CE00000270BB908E10AB906E800BD0F910FBF24
:103CF0000F910895C49A08951F931FB71F9306B399
:103D0000017029F00FEF1F911FBF1F910895002729
:103D1000FACF1F931FB71F93A8950BB107FFFCCFD6
:103D20000CB11F911FBF1F9108951F931FB71F93C1
:103D3000A8951BB115FFFCCF0CB91F911FBF1F9198
:023D40000895E4
:00000001FF
