:020000020000FC
:040000000C9400005C
:103C0000F894A89504B7007004BF11E20091600019
:103C10000861009360001093600004E00EBF0FEF96
:103C20000DBF002704B90FEF05B903B117E0012359
:103C300011F00C940000389A3B9A409A439A0CE099
:103C40000093C40000E0007F0093C50000270093AC
:103C5000C00008E10093C10006E00093C200A895EF
:103C6000A8950E940C1F093461F0073561F00235F8
:103C700061F0073761F0023761F0013561F00C94B3
:103C8000301E0C945A1E0C94A51E0C94861E0C9487
:103C9000E31E0C94D01E02E40E94FE1EA895009123
:103CA000C00006FFFBCF4098439838983B98A895F2
:103CB0000C94000006E40E94FE1E02E40E94FE1E18
:103CC0000CE40E94FE1E01E00E94FE1E00E00E9425
:103CD000FE1E00E00E94FE1E01E00E94FE1E00E0AB
:103CE0000E94FE1E00E00E94FE1E01E00E94FE1ED9
:103CF00000E00E94FE1E00E00E94FE1E00E00E9406
:103D0000FE1E01E00E94FE1E0C943F1E0E940C1F2E
:103D1000402F60E80E941A1F0E94FE1E013099F099
:103D200000271127FF27E42F8894FF0FEE0FF01FC5
:103D300013951730C8F31127A89505910E94FE1E10
:103D400013951038C8F30C943F1E0E940C1F402F8F
:103D500068E70E941A1F0E94FE1E0130E9F00E94CF
:103D6000341F1127A8950E940C1F002E0E940C1FC3
:103D7000102E01E00E94271F32961395103490F305
:103D80000E94341F03E00E94271F05E00E94271FA6
:103D900001E10E94271F00E00E94FE1E0C943F1EBE
:103DA000A895F999FDCFAA27BB2791E08FEFA89599
:103DB000B2BDA1BDF89A00B50E94FE1E11960197F2
:103DC000B0F70C943F1EAA27BB2791E08FEFA89570
:103DD0000E940C1FA895F999FDCFB2BDA1BD00BDF1
:103DE000FA9AF99A1196019728F406E60E94FE1EA7
:103DF0000C943F1E0EE60E94FE1EE9CF1F931FB7D4
:103E00001F93A8951091C00015FFFBCF0093C6002B
:103E10001F911FBF1F9108951F931FB71F93A89550
:103E20001091C00017FFFBCF0091C6001F911FBF6C
:103E30001F9108951F931FB71F93461710F001E0BD
:103E400002C000E000C01F911FBF1F9108951F9383
:103E50001FB71F93A89517B710FDFCCF07BFE895B4
:103E60001F911FBF1F9108950F930FB70F93E42F5A
:103E7000E170E0FBEE27E7F9F42FFE77F6950F915E
:063E80000FBF0F91089531
:00000001FF
